{
  "contractName": "SolidityDrive",
  "abi": [
    {
      "constant": false,
      "inputs": [
        {
          "name": "_hash",
          "type": "string"
        },
        {
          "name": "_fileName",
          "type": "string"
        },
        {
          "name": "_fileType",
          "type": "string"
        },
        {
          "name": "_date",
          "type": "uint256"
        }
      ],
      "name": "add",
      "outputs": [],
      "payable": false,
      "stateMutability": "nonpayable",
      "type": "function"
    },
    {
      "constant": true,
      "inputs": [
        {
          "name": "_index",
          "type": "uint256"
        }
      ],
      "name": "getFile",
      "outputs": [
        {
          "name": "",
          "type": "string"
        },
        {
          "name": "",
          "type": "string"
        },
        {
          "name": "",
          "type": "string"
        },
        {
          "name": "",
          "type": "uint256"
        }
      ],
      "payable": false,
      "stateMutability": "view",
      "type": "function"
    },
    {
      "constant": true,
      "inputs": [],
      "name": "getLength",
      "outputs": [
        {
          "name": "",
          "type": "uint256"
        }
      ],
      "payable": false,
      "stateMutability": "view",
      "type": "function"
    },
    {
      "constant": false,
      "inputs": [
        {
          "name": "payees",
          "type": "address[]"
        },
        {
          "name": "values",
          "type": "uint256[]"
        }
      ],
      "name": "pay",
      "outputs": [],
      "payable": true,
      "stateMutability": "payable",
      "type": "function"
    },
    {
      "constant": true,
      "inputs": [],
      "name": "checkBalance",
      "outputs": [
        {
          "name": "",
          "type": "uint256"
        }
      ],
      "payable": false,
      "stateMutability": "view",
      "type": "function"
    }
  ],
  "bytecode": "0x608060405234801561001057600080fd5b50610af7806100206000396000f3fe60806040526004361061004a5760003560e01c8063084ce7081461004f5780632bfda3131461019b5780633f647a971461032e578063be1c766b1461052e578063c71daccb14610559575b600080fd5b6101996004803603604081101561006557600080fd5b810190808035906020019064010000000081111561008257600080fd5b82018360208201111561009457600080fd5b803590602001918460208302840111640100000000831117156100b657600080fd5b919080806020026020016040519081016040528093929190818152602001838360200280828437600081840152601f19601f8201169050808301925050505050505091929192908035906020019064010000000081111561011657600080fd5b82018360208201111561012857600080fd5b8035906020019184602083028401116401000000008311171561014a57600080fd5b919080806020026020016040519081016040528093929190818152602001838360200280828437600081840152601f19601f820116905080830192505050505050509192919290505050610584565b005b3480156101a757600080fd5b506101d4600480360360208110156101be57600080fd5b8101908080359060200190929190505050610612565b60405180806020018060200180602001858152602001848103845288818151815260200191508051906020019080838360005b83811015610222578082015181840152602081019050610207565b50505050905090810190601f16801561024f5780820380516001836020036101000a031916815260200191505b50848103835287818151815260200191508051906020019080838360005b8381101561028857808201518184015260208101905061026d565b50505050905090810190601f1680156102b55780820380516001836020036101000a031916815260200191505b50848103825286818151815260200191508051906020019080838360005b838110156102ee5780820151818401526020810190506102d3565b50505050905090810190601f16801561031b5780820380516001836020036101000a031916815260200191505b5097505050505050505060405180910390f35b34801561033a57600080fd5b5061052c6004803603608081101561035157600080fd5b810190808035906020019064010000000081111561036e57600080fd5b82018360208201111561038057600080fd5b803590602001918460018302840111640100000000831117156103a257600080fd5b91908080601f016020809104026020016040519081016040528093929190818152602001838380828437600081840152601f19601f8201169050808301925050505050505091929192908035906020019064010000000081111561040557600080fd5b82018360208201111561041757600080fd5b8035906020019184600183028401116401000000008311171561043957600080fd5b91908080601f016020809104026020016040519081016040528093929190818152602001838380828437600081840152601f19601f8201169050808301925050505050505091929192908035906020019064010000000081111561049c57600080fd5b8201836020820111156104ae57600080fd5b803590602001918460018302840111640100000000831117156104d057600080fd5b91908080601f016020809104026020016040519081016040528093929190818152602001838380828437600081840152601f19601f820116905080830192505050505050509192919290803590602001909291905050506108a2565b005b34801561053a57600080fd5b50610543610996565b6040518082815260200191505060405180910390f35b34801561056557600080fd5b5061056e6109df565b6040518082815260200191505060405180910390f35b60008090505b825181101561060d5782818151811061059f57fe5b602002602001015173ffffffffffffffffffffffffffffffffffffffff166108fc8383815181106105cc57fe5b60200260200101519081150290604051600060405180830381858888f193505050501580156105ff573d6000803e3d6000fd5b50808060010191505061058a565b505050565b606080606060006106216109fe565b6000803373ffffffffffffffffffffffffffffffffffffffff1673ffffffffffffffffffffffffffffffffffffffff168152602001908152602001600020868154811061066a57fe5b9060005260206000209060040201604051806080016040529081600082018054600181600116156101000203166002900480601f01602080910402602001604051908101604052809291908181526020018280546001816001161561010002031660029004801561071c5780601f106106f15761010080835404028352916020019161071c565b820191906000526020600020905b8154815290600101906020018083116106ff57829003601f168201915b50505050508152602001600182018054600181600116156101000203166002900480601f0160208091040260200160405190810160405280929190818152602001828054600181600116156101000203166002900480156107be5780601f10610793576101008083540402835291602001916107be565b820191906000526020600020905b8154815290600101906020018083116107a157829003601f168201915b50505050508152602001600282018054600181600116156101000203166002900480601f0160208091040260200160405190810160405280929190818152602001828054600181600116156101000203166002900480156108605780601f1061083557610100808354040283529160200191610860565b820191906000526020600020905b81548152906001019060200180831161084357829003601f168201915b50505050508152602001600382015481525050905080600001518160200151826040015183606001518393508292508191509450945094509450509193509193565b6000803373ffffffffffffffffffffffffffffffffffffffff1673ffffffffffffffffffffffffffffffffffffffff168152602001908152602001600020604051806080016040528086815260200185815260200184815260200183815250908060018154018082558091505090600182039060005260206000209060040201600090919290919091506000820151816000019080519060200190610948929190610a26565b506020820151816001019080519060200190610965929190610a26565b506040820151816002019080519060200190610982929190610a26565b506060820151816003015550505050505050565b60008060003373ffffffffffffffffffffffffffffffffffffffff1673ffffffffffffffffffffffffffffffffffffffff16815260200190815260200160002080549050905090565b60003073ffffffffffffffffffffffffffffffffffffffff1631905090565b6040518060800160405280606081526020016060815260200160608152602001600081525090565b828054600181600116156101000203166002900490600052602060002090601f016020900481019282601f10610a6757805160ff1916838001178555610a95565b82800160010185558215610a95579182015b82811115610a94578251825591602001919060010190610a79565b5b509050610aa29190610aa6565b5090565b610ac891905b80821115610ac4576000816000905550600101610aac565b5090565b9056fea165627a7a72305820753adb72604a6b6a3b71991bb6cdceb10443fc785b22635259ecbf608c80f90a0029",
  "source": "pragma solidity ^0.5.0;\r\n\r\ncontract SolidityDrive {\r\n    struct File {\r\n        string hash;\r\n        string fileName;\r\n        string fileType;\r\n        uint date;\r\n    }\r\n\r\n    mapping(address => File[]) files;\r\n\r\n    function add(string memory _hash, string memory _fileName, string memory _fileType, uint _date) public {\r\n        files[msg.sender].push(File({hash: _hash, fileName: _fileName, fileType: _fileType, date: _date}));\r\n    }\r\n\r\n    function getFile(uint _index) public view returns(string memory, string memory, string memory, uint) {\r\n        File memory file = files[msg.sender][_index];\r\n        return (file.hash, file.fileName, file.fileType, file.date);\r\n    }\r\n\r\n    function getLength() public view returns(uint) {\r\n        return files[msg.sender].length;\r\n    }\r\n\r\n    function pay(address payable[]  memory payees, uint[] memory values) public payable{\r\n        for(uint i = 0; i < payees.length; i++){\r\n            payees[i].transfer(values[i]);\r\n        }\r\n    }\r\n\r\n    function checkBalance() public view returns(uint)\r\n    {\r\n        return address(this).balance;\r\n    }\r\n\r\n    \r\n}",
  "sourcePath": "C:/Users/meets/OneDrive/Desktop/BE TEst/Decentralized Storage/contracts/SolidityDrive.sol",
  "compiler": {
    "name": "solc",
    "version": "0.5.8+commit.23d335f2.Emscripten.clang"
  },
  "schemaVersion": "3.0.13",
  "updatedAt": "2020-02-07T04:41:57.708Z",
  "devdoc": {
    "methods": {}
  },
  "userdoc": {
    "methods": {}
  }
}