{
  "contractName": "SolidityDrive",
  "abi": [
    {
      "constant": true,
      "inputs": [
        {
          "name": "",
          "type": "address"
        }
      ],
      "name": "deposits",
      "outputs": [
        {
          "name": "",
          "type": "uint256"
        }
      ],
      "payable": false,
      "stateMutability": "view",
      "type": "function"
    },
    {
      "constant": false,
      "inputs": [
        {
          "name": "_hash",
          "type": "string"
        },
        {
          "name": "_fileName",
          "type": "string"
        },
        {
          "name": "_fileType",
          "type": "string"
        },
        {
          "name": "_date",
          "type": "uint256"
        }
      ],
      "name": "add",
      "outputs": [],
      "payable": false,
      "stateMutability": "nonpayable",
      "type": "function"
    },
    {
      "constant": true,
      "inputs": [
        {
          "name": "_index",
          "type": "uint256"
        }
      ],
      "name": "getFile",
      "outputs": [
        {
          "name": "",
          "type": "string"
        },
        {
          "name": "",
          "type": "string"
        },
        {
          "name": "",
          "type": "string"
        },
        {
          "name": "",
          "type": "uint256"
        }
      ],
      "payable": false,
      "stateMutability": "view",
      "type": "function"
    },
    {
      "constant": true,
      "inputs": [],
      "name": "getLength",
      "outputs": [
        {
          "name": "",
          "type": "uint256"
        }
      ],
      "payable": false,
      "stateMutability": "view",
      "type": "function"
    },
    {
      "constant": false,
      "inputs": [
        {
          "name": "payee",
          "type": "address[]"
        }
      ],
      "name": "depositsFund",
      "outputs": [],
      "payable": true,
      "stateMutability": "payable",
      "type": "function"
    },
    {
      "constant": false,
      "inputs": [
        {
          "name": "payee",
          "type": "address"
        }
      ],
      "name": "withdraw",
      "outputs": [],
      "payable": false,
      "stateMutability": "nonpayable",
      "type": "function"
    },
    {
      "constant": true,
      "inputs": [],
      "name": "checkBalance",
      "outputs": [
        {
          "name": "",
          "type": "uint256"
        }
      ],
      "payable": false,
      "stateMutability": "view",
      "type": "function"
    }
  ],
  "bytecode": "0x608060405234801561001057600080fd5b50610c78806100206000396000f3fe6080604052600436106100705760003560e01c806351cff8d91161004e57806351cff8d9146104c0578063be1c766b14610511578063c71daccb1461053c578063fc7e286d1461056757610070565b80632bfda313146100755780633f647a97146102085780634f5d781614610408575b600080fd5b34801561008157600080fd5b506100ae6004803603602081101561009857600080fd5b81019080803590602001909291905050506105cc565b60405180806020018060200180602001858152602001848103845288818151815260200191508051906020019080838360005b838110156100fc5780820151818401526020810190506100e1565b50505050905090810190601f1680156101295780820380516001836020036101000a031916815260200191505b50848103835287818151815260200191508051906020019080838360005b83811015610162578082015181840152602081019050610147565b50505050905090810190601f16801561018f5780820380516001836020036101000a031916815260200191505b50848103825286818151815260200191508051906020019080838360005b838110156101c85780820151818401526020810190506101ad565b50505050905090810190601f1680156101f55780820380516001836020036101000a031916815260200191505b5097505050505050505060405180910390f35b34801561021457600080fd5b506104066004803603608081101561022b57600080fd5b810190808035906020019064010000000081111561024857600080fd5b82018360208201111561025a57600080fd5b8035906020019184600183028401116401000000008311171561027c57600080fd5b91908080601f016020809104026020016040519081016040528093929190818152602001838380828437600081840152601f19601f820116905080830192505050505050509192919290803590602001906401000000008111156102df57600080fd5b8201836020820111156102f157600080fd5b8035906020019184600183028401116401000000008311171561031357600080fd5b91908080601f016020809104026020016040519081016040528093929190818152602001838380828437600081840152601f19601f8201169050808301925050505050505091929192908035906020019064010000000081111561037657600080fd5b82018360208201111561038857600080fd5b803590602001918460018302840111640100000000831117156103aa57600080fd5b91908080601f016020809104026020016040519081016040528093929190818152602001838380828437600081840152601f19601f8201169050808301925050505050505091929192908035906020019092919050505061085c565b005b6104be6004803603602081101561041e57600080fd5b810190808035906020019064010000000081111561043b57600080fd5b82018360208201111561044d57600080fd5b8035906020019184602083028401116401000000008311171561046f57600080fd5b919080806020026020016040519081016040528093929190818152602001838360200280828437600081840152601f19601f820116905080830192505050505050509192919290505050610950565b005b3480156104cc57600080fd5b5061050f600480360360208110156104e357600080fd5b81019080803573ffffffffffffffffffffffffffffffffffffffff169060200190929190505050610a2b565b005b34801561051d57600080fd5b50610526610aff565b6040518082815260200191505060405180910390f35b34801561054857600080fd5b50610551610b48565b6040518082815260200191505060405180910390f35b34801561057357600080fd5b506105b66004803603602081101561058a57600080fd5b81019080803573ffffffffffffffffffffffffffffffffffffffff169060200190929190505050610b67565b6040518082815260200191505060405180910390f35b606080606060006105db610b7f565b6000803373ffffffffffffffffffffffffffffffffffffffff1673ffffffffffffffffffffffffffffffffffffffff168152602001908152602001600020868154811061062457fe5b9060005260206000209060040201604051806080016040529081600082018054600181600116156101000203166002900480601f0160208091040260200160405190810160405280929190818152602001828054600181600116156101000203166002900480156106d65780601f106106ab576101008083540402835291602001916106d6565b820191906000526020600020905b8154815290600101906020018083116106b957829003601f168201915b50505050508152602001600182018054600181600116156101000203166002900480601f0160208091040260200160405190810160405280929190818152602001828054600181600116156101000203166002900480156107785780601f1061074d57610100808354040283529160200191610778565b820191906000526020600020905b81548152906001019060200180831161075b57829003601f168201915b50505050508152602001600282018054600181600116156101000203166002900480601f01602080910402602001604051908101604052809291908181526020018280546001816001161561010002031660029004801561081a5780601f106107ef5761010080835404028352916020019161081a565b820191906000526020600020905b8154815290600101906020018083116107fd57829003601f168201915b50505050508152602001600382015481525050905080600001518160200151826040015183606001518393508292508191509450945094509450509193509193565b6000803373ffffffffffffffffffffffffffffffffffffffff1673ffffffffffffffffffffffffffffffffffffffff168152602001908152602001600020604051806080016040528086815260200185815260200184815260200183815250908060018154018082558091505090600182039060005260206000209060040201600090919290919091506000820151816000019080519060200190610902929190610ba7565b50602082015181600101908051906020019061091f929190610ba7565b50604082015181600201908051906020019061093c929190610ba7565b506060820151816003015550505050505050565b600034905060008090505b8251811015610a26578251828161096e57fe5b046001600085848151811061097f57fe5b602002602001015173ffffffffffffffffffffffffffffffffffffffff1673ffffffffffffffffffffffffffffffffffffffff1681526020019081526020016000205401600160008584815181106109d357fe5b602002602001015173ffffffffffffffffffffffffffffffffffffffff1673ffffffffffffffffffffffffffffffffffffffff16815260200190815260200160002081905550808060010191505061095b565b505050565b6000600160008373ffffffffffffffffffffffffffffffffffffffff1673ffffffffffffffffffffffffffffffffffffffff1681526020019081526020016000205490506000600160008473ffffffffffffffffffffffffffffffffffffffff1673ffffffffffffffffffffffffffffffffffffffff168152602001908152602001600020819055508173ffffffffffffffffffffffffffffffffffffffff166108fc829081150290604051600060405180830381858888f19350505050158015610afa573d6000803e3d6000fd5b505050565b60008060003373ffffffffffffffffffffffffffffffffffffffff1673ffffffffffffffffffffffffffffffffffffffff16815260200190815260200160002080549050905090565b60003073ffffffffffffffffffffffffffffffffffffffff1631905090565b60016020528060005260406000206000915090505481565b6040518060800160405280606081526020016060815260200160608152602001600081525090565b828054600181600116156101000203166002900490600052602060002090601f016020900481019282601f10610be857805160ff1916838001178555610c16565b82800160010185558215610c16579182015b82811115610c15578251825591602001919060010190610bfa565b5b509050610c239190610c27565b5090565b610c4991905b80821115610c45576000816000905550600101610c2d565b5090565b9056fea165627a7a72305820544fe509a09ae0ad75f937d4b7a881b3c20b0920c24a7bee9bce6993ca34aa580029",
  "source": "pragma solidity ^0.5.0;\r\n\r\ncontract SolidityDrive {\r\n    struct File {\r\n        string hash;\r\n        string fileName;\r\n        string fileType;\r\n        uint date;\r\n    }\r\n\r\n    mapping(address => File[]) files;\r\n\r\n    function add(string memory _hash, string memory _fileName, string memory _fileType, uint _date) public {\r\n        files[msg.sender].push(File({hash: _hash, fileName: _fileName, fileType: _fileType, date: _date}));\r\n    }\r\n\r\n    function getFile(uint _index) public view returns(string memory, string memory, string memory, uint) {\r\n        File memory file = files[msg.sender][_index];\r\n        return (file.hash, file.fileName, file.fileType, file.date);\r\n    }\r\n\r\n    function getLength() public view returns(uint) {\r\n        return files[msg.sender].length;\r\n    }\r\n\r\n    mapping(address => uint256) public deposits;\r\n\r\n    function depositsFund(address[] memory payee) public payable {\r\n        uint256 amount = msg.value;\r\n        \r\n        for(uint i=0;i<payee.length;i++)\r\n        {\r\n        deposits[payee[i]] = deposits[payee[i]] + (amount)/payee.length;\r\n        }\r\n    }\r\n    \r\n    function withdraw(address payable payee) public {\r\n        uint256 payment = deposits[payee];\r\n        deposits[payee] = 0;\r\n        payee.transfer(payment);\r\n    }\r\n\r\n    function checkBalance() public view returns(uint)\r\n    {\r\n        return address(this).balance;\r\n    }\r\n\r\n    \r\n}",
  "sourcePath": "C:/Users/meets/OneDrive/Desktop/BE TEst/Decentralized Storage/contracts/SolidityDrive.sol",
  "compiler": {
    "name": "solc",
    "version": "0.5.8+commit.23d335f2.Emscripten.clang"
  },
  "schemaVersion": "3.0.13",
  "updatedAt": "2020-02-25T09:48:27.614Z",
  "devdoc": {
    "methods": {}
  },
  "userdoc": {
    "methods": {}
  }
}